{
    "contractName": "OceanToken",
    "abi": [
        {
            "inputs": [
                {
                    "internalType": "uint256",
                    "name": "cap",
                    "type": "uint256"
                },
                {
                    "internalType": "uint256",
                    "name": "reward",
                    "type": "uint256"
                }
            ],
            "stateMutability": "nonpayable",
            "type": "constructor"
        },
        {
            "anonymous": false,
            "inputs": [
                {
                    "indexed": true,
                    "internalType": "address",
                    "name": "owner",
                    "type": "address"
                },
                {
                    "indexed": true,
                    "internalType": "address",
                    "name": "spender",
                    "type": "address"
                },
                {
                    "indexed": false,
                    "internalType": "uint256",
                    "name": "value",
                    "type": "uint256"
                }
            ],
            "name": "Approval",
            "type": "event"
        },
        {
            "anonymous": false,
            "inputs": [
                {
                    "indexed": true,
                    "internalType": "address",
                    "name": "from",
                    "type": "address"
                },
                {
                    "indexed": true,
                    "internalType": "address",
                    "name": "to",
                    "type": "address"
                },
                {
                    "indexed": false,
                    "internalType": "uint256",
                    "name": "value",
                    "type": "uint256"
                }
            ],
            "name": "Transfer",
            "type": "event"
        },
        {
            "inputs": [
                {
                    "internalType": "address",
                    "name": "owner",
                    "type": "address"
                },
                {
                    "internalType": "address",
                    "name": "spender",
                    "type": "address"
                }
            ],
            "name": "allowance",
            "outputs": [
                {
                    "internalType": "uint256",
                    "name": "",
                    "type": "uint256"
                }
            ],
            "stateMutability": "view",
            "type": "function"
        },
        {
            "inputs": [
                {
                    "internalType": "address",
                    "name": "spender",
                    "type": "address"
                },
                {
                    "internalType": "uint256",
                    "name": "amount",
                    "type": "uint256"
                }
            ],
            "name": "approve",
            "outputs": [
                {
                    "internalType": "bool",
                    "name": "",
                    "type": "bool"
                }
            ],
            "stateMutability": "nonpayable",
            "type": "function"
        },
        {
            "inputs": [
                {
                    "internalType": "address",
                    "name": "account",
                    "type": "address"
                }
            ],
            "name": "balanceOf",
            "outputs": [
                {
                    "internalType": "uint256",
                    "name": "",
                    "type": "uint256"
                }
            ],
            "stateMutability": "view",
            "type": "function"
        },
        {
            "inputs": [],
            "name": "blockReward",
            "outputs": [
                {
                    "internalType": "uint256",
                    "name": "",
                    "type": "uint256"
                }
            ],
            "stateMutability": "view",
            "type": "function"
        },
        {
            "inputs": [
                {
                    "internalType": "uint256",
                    "name": "amount",
                    "type": "uint256"
                }
            ],
            "name": "burn",
            "outputs": [],
            "stateMutability": "nonpayable",
            "type": "function"
        },
        {
            "inputs": [
                {
                    "internalType": "address",
                    "name": "account",
                    "type": "address"
                },
                {
                    "internalType": "uint256",
                    "name": "amount",
                    "type": "uint256"
                }
            ],
            "name": "burnFrom",
            "outputs": [],
            "stateMutability": "nonpayable",
            "type": "function"
        },
        {
            "inputs": [],
            "name": "cap",
            "outputs": [
                {
                    "internalType": "uint256",
                    "name": "",
                    "type": "uint256"
                }
            ],
            "stateMutability": "view",
            "type": "function"
        },
        {
            "inputs": [],
            "name": "decimals",
            "outputs": [
                {
                    "internalType": "uint8",
                    "name": "",
                    "type": "uint8"
                }
            ],
            "stateMutability": "view",
            "type": "function"
        },
        {
            "inputs": [
                {
                    "internalType": "address",
                    "name": "spender",
                    "type": "address"
                },
                {
                    "internalType": "uint256",
                    "name": "subtractedValue",
                    "type": "uint256"
                }
            ],
            "name": "decreaseAllowance",
            "outputs": [
                {
                    "internalType": "bool",
                    "name": "",
                    "type": "bool"
                }
            ],
            "stateMutability": "nonpayable",
            "type": "function"
        },
        {
            "inputs": [
                {
                    "internalType": "address",
                    "name": "spender",
                    "type": "address"
                },
                {
                    "internalType": "uint256",
                    "name": "addedValue",
                    "type": "uint256"
                }
            ],
            "name": "increaseAllowance",
            "outputs": [
                {
                    "internalType": "bool",
                    "name": "",
                    "type": "bool"
                }
            ],
            "stateMutability": "nonpayable",
            "type": "function"
        },
        {
            "inputs": [],
            "name": "name",
            "outputs": [
                {
                    "internalType": "string",
                    "name": "",
                    "type": "string"
                }
            ],
            "stateMutability": "view",
            "type": "function"
        },
        {
            "inputs": [],
            "name": "owner",
            "outputs": [
                {
                    "internalType": "address payable",
                    "name": "",
                    "type": "address"
                }
            ],
            "stateMutability": "view",
            "type": "function"
        },
        {
            "inputs": [
                {
                    "internalType": "uint256",
                    "name": "reward",
                    "type": "uint256"
                }
            ],
            "name": "setBlockReward",
            "outputs": [],
            "stateMutability": "nonpayable",
            "type": "function"
        },
        {
            "inputs": [],
            "name": "symbol",
            "outputs": [
                {
                    "internalType": "string",
                    "name": "",
                    "type": "string"
                }
            ],
            "stateMutability": "view",
            "type": "function"
        },
        {
            "inputs": [],
            "name": "totalSupply",
            "outputs": [
                {
                    "internalType": "uint256",
                    "name": "",
                    "type": "uint256"
                }
            ],
            "stateMutability": "view",
            "type": "function"
        },
        {
            "inputs": [
                {
                    "internalType": "address",
                    "name": "to",
                    "type": "address"
                },
                {
                    "internalType": "uint256",
                    "name": "amount",
                    "type": "uint256"
                }
            ],
            "name": "transfer",
            "outputs": [
                {
                    "internalType": "bool",
                    "name": "",
                    "type": "bool"
                }
            ],
            "stateMutability": "nonpayable",
            "type": "function"
        },
        {
            "inputs": [
                {
                    "internalType": "address",
                    "name": "from",
                    "type": "address"
                },
                {
                    "internalType": "address",
                    "name": "to",
                    "type": "address"
                },
                {
                    "internalType": "uint256",
                    "name": "amount",
                    "type": "uint256"
                }
            ],
            "name": "transferFrom",
            "outputs": [
                {
                    "internalType": "bool",
                    "name": "",
                    "type": "bool"
                }
            ],
            "stateMutability": "nonpayable",
            "type": "function"
        }
    ],
    "bytecode": "60a06040523480156200001157600080fd5b50604051620015353803806200153583398101604081905262000034916200039a565b620000426012600a620004d4565b6200004e9083620004ec565b604051806040016040528060098152602001684f6365616e546f6b6560b81b815250604051806040016040528060028152602001614f4360f01b81525081600390816200009c9190620005aa565b506004620000ab8282620005aa565b50505060008111620001045760405162461bcd60e51b815260206004820152601560248201527f45524332304361707065643a206361702069732030000000000000000000000060448201526064015b60405180910390fd5b608052600580546001600160a01b031916339081179091556200014d906200012a601290565b6200013790600a620004d4565b620001479063042c1d80620004ec565b62000173565b6200015b6012600a620004d4565b620001679082620004ec565b600655506200068c9050565b608051816200018160025490565b6200018d919062000676565b1115620001dd5760405162461bcd60e51b815260206004820152601960248201527f45524332304361707065643a20636170206578636565646564000000000000006044820152606401620000fb565b620001e98282620001ed565b5050565b60805181620001fb60025490565b62000207919062000676565b1115620002575760405162461bcd60e51b815260206004820152601960248201527f45524332304361707065643a20636170206578636565646564000000000000006044820152606401620000fb565b620001e982826001600160a01b038216620002b55760405162461bcd60e51b815260206004820152601f60248201527f45524332303a206d696e7420746f20746865207a65726f2061646472657373006044820152606401620000fb565b620002c3600083836200032e565b8060026000828254620002d7919062000676565b90915550506001600160a01b038216600081815260208181526040808320805486019055518481527fddf252ad1be2c89b69c2b068fc378daa952ba7f163c4a11628f55a4df523b3ef910160405180910390a35050565b6001600160a01b038316158015906200035057506001600160a01b0382164114155b80156200035c57504115155b156200036c576200036c62000384565b6200037f8383836001600160e01b038416565b505050565b62000398416006546200017360201b60201c565b565b60008060408385031215620003ae57600080fd5b505080516020909101519092909150565b634e487b7160e01b600052601160045260246000fd5b600181815b8085111562000416578160001904821115620003fa57620003fa620003bf565b808516156200040857918102915b93841c9390800290620003da565b509250929050565b6000826200042f57506001620004ce565b816200043e57506000620004ce565b8160018114620004575760028114620004625762000482565b6001915050620004ce565b60ff841115620004765762000476620003bf565b50506001821b620004ce565b5060208310610133831016604e8410600b8410161715620004a7575081810a620004ce565b620004b38383620003d5565b8060001904821115620004ca57620004ca620003bf565b0290505b92915050565b6000620004e560ff8416836200041e565b9392505050565b8082028115828204841417620004ce57620004ce620003bf565b634e487b7160e01b600052604160045260246000fd5b600181811c908216806200053157607f821691505b6020821081036200055257634e487b7160e01b600052602260045260246000fd5b50919050565b601f8211156200037f57600081815260208120601f850160051c81016020861015620005815750805b601f850160051c820191505b81811015620005a2578281556001016200058d565b505050505050565b81516001600160401b03811115620005c657620005c662000506565b620005de81620005d784546200051c565b8462000558565b602080601f831160018114620006165760008415620005fd5750858301515b600019600386901b1c1916600185901b178555620005a2565b600085815260208120601f198616915b82811015620006475788860151825594840194600190910190840162000626565b5085821015620006665787850151600019600388901b60f8161c191681555b5050505050600190811b01905550565b80820180821115620004ce57620004ce620003bf565b608051610e7f620006b6600039600081816101a9015281816109cd0152610a510152610e7f6000f3fe608060405234801561001057600080fd5b506004361061010b5760003560e01c806339509351116100a25780638da5cb5b116100715780638da5cb5b1461022f57806395d89b411461025a578063a457c2d714610262578063a9059cbb14610275578063dd62ed3e1461028857600080fd5b806339509351146101cd57806342966c68146101e057806370a08231146101f357806379cc67901461021c57600080fd5b80631a18e707116100de5780631a18e7071461017057806323b872dd14610185578063313ce56714610198578063355274ea146101a757600080fd5b806306fdde0314610110578063095ea7b31461012e5780630ac168a11461015157806318160ddd14610168575b600080fd5b61011861029b565b6040516101259190610b9e565b60405180910390f35b61014161013c366004610c08565b61032d565b6040519015158152602001610125565b61015a60065481565b604051908152602001610125565b60025461015a565b61018361017e366004610c32565b610347565b005b610141610193366004610c4b565b6103cc565b60405160128152602001610125565b7f000000000000000000000000000000000000000000000000000000000000000061015a565b6101416101db366004610c08565b6103f0565b6101836101ee366004610c32565b610412565b61015a610201366004610c87565b6001600160a01b031660009081526020819052604090205490565b61018361022a366004610c08565b61041f565b600554610242906001600160a01b031681565b6040516001600160a01b039091168152602001610125565b610118610438565b610141610270366004610c08565b610447565b610141610283366004610c08565b6104c2565b61015a610296366004610ca9565b6104d0565b6060600380546102aa90610cdc565b80601f01602080910402602001604051908101604052809291908181526020018280546102d690610cdc565b80156103235780601f106102f857610100808354040283529160200191610323565b820191906000526020600020905b81548152906001019060200180831161030657829003601f168201915b5050505050905090565b60003361033b8185856104fb565b60019150505b92915050565b6005546001600160a01b031633146103b05760405162461bcd60e51b815260206004820152602160248201527f6f6e6c79206f776e65722063616e2063616c6c20746869732066756e6374696f6044820152603760f91b60648201526084015b60405180910390fd5b6103bc6012600a610e10565b6103c69082610e1f565b60065550565b6000336103da858285610620565b6103e585858561069a565b506001949350505050565b60003361033b81858561040383836104d0565b61040d9190610e36565b6104fb565b61041c3382610849565b50565b61042a823383610620565b6104348282610849565b5050565b6060600480546102aa90610cdc565b6000338161045582866104d0565b9050838110156104b55760405162461bcd60e51b815260206004820152602560248201527f45524332303a2064656372656173656420616c6c6f77616e63652062656c6f77604482015264207a65726f60d81b60648201526084016103a7565b6103e582868684036104fb565b60003361033b81858561069a565b6001600160a01b03918216600090815260016020908152604080832093909416825291909152205490565b6001600160a01b03831661055d5760405162461bcd60e51b8152602060048201526024808201527f45524332303a20617070726f76652066726f6d20746865207a65726f206164646044820152637265737360e01b60648201526084016103a7565b6001600160a01b0382166105be5760405162461bcd60e51b815260206004820152602260248201527f45524332303a20617070726f766520746f20746865207a65726f206164647265604482015261737360f01b60648201526084016103a7565b6001600160a01b0383811660008181526001602090815260408083209487168084529482529182902085905590518481527f8c5be1e5ebec7d5bd14f71427d1e84f3dd0314c0f7b2291e5b200ac8c7c3b92591015b60405180910390a3505050565b600061062c84846104d0565b9050600019811461069457818110156106875760405162461bcd60e51b815260206004820152601d60248201527f45524332303a20696e73756666696369656e7420616c6c6f77616e636500000060448201526064016103a7565b61069484848484036104fb565b50505050565b6001600160a01b0383166106fe5760405162461bcd60e51b815260206004820152602560248201527f45524332303a207472616e736665722066726f6d20746865207a65726f206164604482015264647265737360d81b60648201526084016103a7565b6001600160a01b0382166107605760405162461bcd60e51b815260206004820152602360248201527f45524332303a207472616e7366657220746f20746865207a65726f206164647260448201526265737360e81b60648201526084016103a7565b61076b83838361097f565b6001600160a01b038316600090815260208190526040902054818110156107e35760405162461bcd60e51b815260206004820152602660248201527f45524332303a207472616e7366657220616d6f756e7420657863656564732062604482015265616c616e636560d01b60648201526084016103a7565b6001600160a01b03848116600081815260208181526040808320878703905593871680835291849020805487019055925185815290927fddf252ad1be2c89b69c2b068fc378daa952ba7f163c4a11628f55a4df523b3ef910160405180910390a3610694565b6001600160a01b0382166108a95760405162461bcd60e51b815260206004820152602160248201527f45524332303a206275726e2066726f6d20746865207a65726f206164647265736044820152607360f81b60648201526084016103a7565b6108b58260008361097f565b6001600160a01b038216600090815260208190526040902054818110156109295760405162461bcd60e51b815260206004820152602260248201527f45524332303a206275726e20616d6f756e7420657863656564732062616c616e604482015261636560f01b60648201526084016103a7565b6001600160a01b0383166000818152602081815260408083208686039055600280548790039055518581529192917fddf252ad1be2c89b69c2b068fc378daa952ba7f163c4a11628f55a4df523b3ef9101610613565b6001600160a01b038316158015906109a057506001600160a01b0382164114155b80156109ab57504115155b156109b8576109b86109bd565b505050565b6109c9416006546109cb565b565b7f0000000000000000000000000000000000000000000000000000000000000000816109f660025490565b610a009190610e36565b1115610a4a5760405162461bcd60e51b8152602060048201526019602482015278115490cc8c10d85c1c19590e8818d85c08195e18d959591959603a1b60448201526064016103a7565b61043482827f000000000000000000000000000000000000000000000000000000000000000081610a7a60025490565b610a849190610e36565b1115610ace5760405162461bcd60e51b8152602060048201526019602482015278115490cc8c10d85c1c19590e8818d85c08195e18d959591959603a1b60448201526064016103a7565b61043482826001600160a01b038216610b295760405162461bcd60e51b815260206004820152601f60248201527f45524332303a206d696e7420746f20746865207a65726f20616464726573730060448201526064016103a7565b610b356000838361097f565b8060026000828254610b479190610e36565b90915550506001600160a01b038216600081815260208181526040808320805486019055518481527fddf252ad1be2c89b69c2b068fc378daa952ba7f163c4a11628f55a4df523b3ef910160405180910390a35050565b600060208083528351808285015260005b81811015610bcb57858101830151858201604001528201610baf565b506000604082860101526040601f19601f8301168501019250505092915050565b80356001600160a01b0381168114610c0357600080fd5b919050565b60008060408385031215610c1b57600080fd5b610c2483610bec565b946020939093013593505050565b600060208284031215610c4457600080fd5b5035919050565b600080600060608486031215610c6057600080fd5b610c6984610bec565b9250610c7760208501610bec565b9150604084013590509250925092565b600060208284031215610c9957600080fd5b610ca282610bec565b9392505050565b60008060408385031215610cbc57600080fd5b610cc583610bec565b9150610cd360208401610bec565b90509250929050565b600181811c90821680610cf057607f821691505b602082108103610d1057634e487b7160e01b600052602260045260246000fd5b50919050565b634e487b7160e01b600052601160045260246000fd5b600181815b80851115610d67578160001904821115610d4d57610d4d610d16565b80851615610d5a57918102915b93841c9390800290610d31565b509250929050565b600082610d7e57506001610341565b81610d8b57506000610341565b8160018114610da15760028114610dab57610dc7565b6001915050610341565b60ff841115610dbc57610dbc610d16565b50506001821b610341565b5060208310610133831016604e8410600b8410161715610dea575081810a610341565b610df48383610d2c565b8060001904821115610e0857610e08610d16565b029392505050565b6000610ca260ff841683610d6f565b808202811582820484141761034157610341610d16565b8082018082111561034157610341610d1656fea26469706673582212205b8739640737e826fcfc7b69b427267041ec438025ebe421a4eff061f912744f64736f6c63430008130033",
    "sourcePath": "c:/Users/Aziz/Desktop/Last-heal/T_c20/ocean-token/contracts/OceanToken.sol",
    "compiler": {
        "name": "solc",
        "version": "0.8.19+commit.7dd6d404"
    },
    "functionHashes": {
        "allowance(address,address)": "dd62ed3e",
        "approve(address,uint256)": "095ea7b3",
        "balanceOf(address)": "70a08231",
        "blockReward()": "0ac168a1",
        "burn(uint256)": "42966c68",
        "burnFrom(address,uint256)": "79cc6790",
        "cap()": "355274ea",
        "decimals()": "313ce567",
        "decreaseAllowance(address,uint256)": "a457c2d7",
        "increaseAllowance(address,uint256)": "39509351",
        "name()": "06fdde03",
        "owner()": "8da5cb5b",
        "setBlockReward(uint256)": "1a18e707",
        "symbol()": "95d89b41",
        "totalSupply()": "18160ddd",
        "transfer(address,uint256)": "a9059cbb",
        "transferFrom(address,address,uint256)": "23b872dd"
    },
    "gasEstimates": {
        "creation": {
            "codeDepositCost": "742200",
            "executionCost": "infinite",
            "totalCost": "infinite"
        },
        "external": {
            "allowance(address,address)": "infinite",
            "approve(address,uint256)": "24652",
            "balanceOf(address)": "2607",
            "blockReward()": "2363",
            "burn(uint256)": "infinite",
            "burnFrom(address,uint256)": "infinite",
            "cap()": "infinite",
            "decimals()": "244",
            "decreaseAllowance(address,uint256)": "27017",
            "increaseAllowance(address,uint256)": "infinite",
            "name()": "infinite",
            "owner()": "2359",
            "setBlockReward(uint256)": "infinite",
            "symbol()": "infinite",
            "totalSupply()": "2382",
            "transfer(address,uint256)": "infinite",
            "transferFrom(address,address,uint256)": "infinite"
        },
        "internal": {
            "_beforeTokenTransfer(address,address,uint256)": "infinite",
            "_mint(address,uint256)": "infinite",
            "_mintMinerReward()": "infinite"
        }
    }
}